{
  "contractName": "ConceptProof",
  "abi": [
    {
      "inputs": [],
      "payable": false,
      "stateMutability": "nonpayable",
      "type": "constructor"
    },
    {
      "anonymous": false,
      "inputs": [
        {
          "indexed": false,
          "name": "timeChanged",
          "type": "uint256"
        }
      ],
      "name": "changeState",
      "type": "event"
    },
    {
      "constant": false,
      "inputs": [
        {
          "name": "_state",
          "type": "uint8"
        }
      ],
      "name": "set_mystate",
      "outputs": [],
      "payable": true,
      "stateMutability": "payable",
      "type": "function"
    },
    {
      "constant": true,
      "inputs": [],
      "name": "get_mystate",
      "outputs": [
        {
          "name": "",
          "type": "uint8"
        }
      ],
      "payable": false,
      "stateMutability": "view",
      "type": "function"
    },
    {
      "constant": true,
      "inputs": [],
      "name": "get_time",
      "outputs": [
        {
          "name": "",
          "type": "uint256"
        }
      ],
      "payable": false,
      "stateMutability": "view",
      "type": "function"
    }
  ],
  "bytecode": "0x608060405234801561001057600080fd5b5060008060006101000a81548160ff021916908360ff1602179055506101a98061003b6000396000f3fe608060405260043610610051576000357c01000000000000000000000000000000000000000000000000000000009004806308511cba14610056578063966a196114610087578063d267aa2a146100b2575b600080fd5b6100856004803603602081101561006c57600080fd5b81019080803560ff1690602001909291905050506100e3565b005b34801561009357600080fd5b5061009c61015a565b6040518082815260200191505060405180910390f35b3480156100be57600080fd5b506100c7610167565b604051808260ff1660ff16815260200191505060405180910390f35b60008160ff16101580156100fb575060028160ff1611155b151561010657600080fd5b806000806101000a81548160ff021916908360ff1602179055507fb00741cb67994fe666256ba87249ebdbd6ba5034f0469c4759bb4542f3655906426040518082815260200191505060405180910390a150565b6000804290508091505090565b60008060009054906101000a900460ff1690509056fea165627a7a7230582078ca362e5c0f8871fc628f861738d4766cbd1edf8b373d28dc3f9e9e9a9a10cc0029",
  "source": "pragma solidity ^0.5.1;\n\ncontract ConceptProof {\n    uint8 private state; \n\n    constructor() public {\n        state =0;\n    }\n\n    event changeState(uint timeChanged);\n\n    function set_mystate(uint8 _state) public payable {\n        require (_state >= 0 && _state <=2);\n        state = _state;\n        emit changeState(now);\n    }\n\n    function get_mystate() public view returns(uint8){\n        return state;\n    }\n\n    function get_time() public view returns(uint){\n        uint time = now;\n        return time;\n    }\n\n}",
  "sourcePath": "/home/celio/Workspace/Doutorado/railsethereum/fogGethMQTT/ethereum/contracts/ConceptProof.sol",
  "compiler": {
    "name": "solc",
    "version": "0.5.1+commit.c8a2cb62.Emscripten.clang"
  },
  "schemaVersion": "3.4.7",
  "updatedAt": "2022-09-02T18:07:15.788Z",
  "networkType": "ethereum",
  "devdoc": {
    "methods": {}
  },
  "userdoc": {
    "methods": {}
  }
}